:020000040800F2
:1000000000500020511400088104000883040008F7
:100010008504000887040008890400080000000027
:100020000000000000000000000000008B04000839
:100030008D040008000000008F04000891040008EF
:1000400099140008991400089914000899140008DC
:1000500099140008991400089914000899140008CC
:1000600099140008991400089914000899140008BC
:1000700099140008991400089914000899140008AC
:10008000991400089914000899140008991400089C
:10009000991400089914000899140008991400088C
:1000A000991400089914000899140008991400087C
:1000B000991400089914000899140008991400086C
:1000C000991400089914000899140008991400085C
:1000D000991400089914000899140008991400084C
:1000E00099140008991400089914000800000000F1
:1000F0000000000000000000000000000000000000
:0C01000000000000000000005FF808F1A3
:10010C000348044B834202D0034B03B1184770479A
:10011C000C0000200C000020000000000548064BDD
:10012C001B1AD90F01EBA301491002D0034B03B1E9
:10013C00184770470C0000200C0000200000000045
:10014C0010B5064C237843B9FFF7DAFF044B13B113
:10015C000448AFF300800123237010BD0C00002075
:10016C0000000000F414000808B5054B1BB105494C
:10017C000548AFF30080BDE80840FFF7CFBF00BFD4
:10018C000000000010000020F41400082DE9F047D6
:10019C0088B004AD002404940594069407943C4B59
:1001AC009A6942F010029A619A6902F01002009268
:1001BC00009A9A6942F020029A619A6902F0200230
:1001CC000192019A9A6942F004029A619A6902F0CA
:1001DC0004020292029A9A6942F008029A619B699F
:1001EC0003F008030393039BDFF8A8A022464FF407
:1001FC006041504600F0D4FFDFF89C90224641F657
:10020C001311484600F0CCFF244F22464FF2030155
:10021C00384600F0C5FF4FF4604304930126059661
:10022C0006944FF00208CDF81C802946504600F089
:10023C00ADFE0496059406942946194800F0A6FED6
:10024C0041F61313049305960694CDF81C802946A9
:10025C00484600F09BFE4FF2030304930596069468
:10026C00CDF81C802946384600F090FE04230493F8
:10027C00059406942946384600F088FE094A5368CE
:10028C0043F0E06343F40043536008B0BDE8F087EB
:10029C00001002400010014000080140000C014019
:1002AC00001401400000014072B6FEE708B50A4890
:1002BC000A4B03600A4B436000238360C3604FF416
:1002CC008042026143618361C361036200F0FEF905
:1002DC0000B908BDFFF7E8FF64010020005400409E
:1002EC00A086010008B50A480A4B03600A4B43601C
:1002FC0000238360C3604FF48042026143618361D9
:10030C00C361036200F0E2F900B908BDFFF7CCFF4E
:10031C001001002000580040A086010008B50D48CF
:10032C000D4B03604FF48273436000238360C36002
:10033C00036143614FF400728261C36103624362E3
:10034C0083620A23C36200F0A5FF00B908BDFFF762
:10035C00ABFF00BFB80000200030014008B50A48D0
:10036C000A4B03604FF4E133436000238360C360A6
:10037C0003610C2242618361C36101F031F800B961
:10038C0008BDFFF791FF00BF70000020003801404E
:10039C0008B50A480A4B03604FF4E133436000236D
:1003AC008360C36003610C2242618361C36101F00D
:1003BC0017F800B908BDFFF777FF00BF2800002031
:1003CC000044004010B590B006AC28220021204615
:1003DC0001F05DF8002301930293039304930593BA
:1003EC000223069301220A9210220B920D934FF4D2
:1003FC0060130F93204600F0BBFA78B90F230193DA
:10040C0002210291002303934FF48062049205931E
:10041C0001A800F0DFFC18B910B010BDFFF744FFC5
:10042C00FFF742FF08B500F055FAFFF7CBFFFFF7D7
:10043C00ADFEFFF73BFFFFF755FFFFF76FFFFFF731
:10044C008DFFFFF7A5FF0A4C4FF40051204600F03A
:10045C00ADFE4FF48041204600F0A8FE4FF4004161
:10046C00204600F0A3FE4FF4967000F057FAEAE72E
:10047C0000100140FEE7FEE7FEE7FEE7FEE77047EF
:10048C007047704708B500F037FA08BD82B00E4BC4
:10049C009A6942F001029A619A6902F00102009293
:1004AC00009ADA6942F08052DA61DB6903F080531A
:1004BC000193019B054A536823F0E06343F080638A
:1004CC00536002B0704700BF0010024000000140B2
:1004DC0010B588B000230493059306930793036823
:1004EC00224A934204D0224A93421FD008B010BD36
:1004FC00204CA36943F00803A361A36903F008032C
:10050C000093009BC02304931223059303230793AA
:10051C0004A9194800F03AFDE36943F40013E361C0
:10052C00E36903F400130193019BDFE7114CA3690A
:10053C0043F00803A361A36903F008030293029B31
:10054C004FF440630493122305930323079304A9E8
:10055C00094800F01BFDE36943F48003E361E369A0
:10056C0003F480030393039BC0E700BF00540040D7
:10057C000058004000100240000C014030B587B01C
:10058C00002302930393049305930268174B9A423A
:10059C0001D007B030BD03F560439A6942F4805234
:1005AC009A619A6902F480520092009A9A6942F018
:1005BC0004029A619B6903F004030193019BA0233D
:1005CC000293022303930323059302AD084C29469F
:1005DC00204600F0DBFC402302930023039304939A
:1005EC002946204600F0D2FCD3E700BF0030014082
:1005FC000008014030B589B000230493059306939D
:10060C00079303682D4A934204D02D4A93422CD071
:10061C0009B030BD2B4B9A6942F480429A619A69B9
:10062C0002F480420092009A9A6942F004029A61A4
:10063C009B6903F004030193019B4FF40073049333
:10064C00022305930323079304AD1F4C2946204630
:10065C0000F09CFC4FF480630493002305930693F5
:10066C002946204600F092FCD2E7164BDA6942F498
:10067C000032DA61DA6902F400320292029A9A6963
:10068C0042F004029A619B6903F004030393039BF9
:10069C0004230493022305930323079304AD0A4C0C
:1006AC002946204600F072FC08230493002305938E
:1006BC0006932946204600F069FCA9E70038014062
:1006CC00004400400010024000080140002800F0E7
:1006DC00CC8070B5044690F83D30002B77D02423A5
:1006EC0084F83D302268136823F0010313602268FC
:1006FC00136843F4004313602268136823F4004327
:10070C00136000F023FC62685A4B9A4264D85A4B2F
:10071C0098428CBF00230123002B40F0A88057493E
:10072C00A1FB00318B0C25686A6822F03F0242EA7B
:10073C0091426A6021680A6A22F03F0266684D4D58
:10074C00AE424FD8013313430B622168CA6922F4BD
:10075C004F4222F0FF026568464B9D424CD8431E27
:10076C006D00B3FBF5F3013340F6FC70034278D017
:10077C00C3F30B031A43CA6121680B6823F0C0034F
:10078C00E269206A024313430B6021688B6823F4EF
:10079C00034323F0FF032269E068024313438B6099
:1007AC002168CB6823F0FF036269A06902431343FD
:1007BC00CB602268136843F00103136000202064AF
:1007CC00202384F83D30206384F83E0070BD80F80F
:1007DC003C30FFF77DFE82E7294B98428CBF00230B
:1007EC00012399E74FF4967505FB03F3254DA5FB03
:1007FC0003539B090133A6E7A668BEB9431E05EB5C
:10080C00450CB3FBFCF30133C3F30B03B3FA83F3D3
:10081C005B0943BBC6B9431E05EB4505B3FBF5F3BA
:10082C000133C3F30B0343F40043A3E7431E05EB6F
:10083C00850C0CEB8C0CB3FBFCF30133C3F30B03F7
:10084C00B3FA83F35B09E4E7431E05EB850505EB7F
:10085C008505B3FBF5F30133C3F30B0343F44043BA
:10086C0088E7042386E7012384E7012070470120F1
:10087C00ACE700BFA08601007F841E0083DE1B4313
:10088C00FF083D00D34D621010B504460E4B1A788C
:10089C004FF47A73B3FBF2F30C4A1068B0FBF3F02D
:1008AC0000F0E4FC68B90F2C01D901200AE0002209
:1008BC0021464FF0FF3000F0C9FC054B1C600020B6
:1008CC0000E0012010BD00BF000000200800002047
:1008DC000400002008B5074A136843F010031360A6
:1008EC00032000F0A1FC0F20FFF7CEFFFFF7CEFD99
:1008FC00002008BD00200240034A1168034B1B78FE
:10090C000B441360704700BFB801002000000020AA
:10091C00014B1868704700BFB801002038B5044679
:10092C00FFF7F6FF0546B4F1FF3F02D0044B1B78EE
:10093C001C44FFF7EDFF401BA042FAD338BD00BFAB
:10094C000000002082B0084B1B68084AA2FB03235E
:10095C005B0A00FB03F3019300BF019B5A1E01923B
:10096C00002BF9D102B0704708000020D34D621063
:10097C00002800F0F18170B582B00446036813F0D2
:10098C00010F2CD0994B5B6803F00C03042B1DD08A
:10099C00964B5B6803F00C03082B12D06368B3F51D
:1009AC00803F41D0002B55D103F1804303F5043334
:1009BC001A6822F480321A601A6822F480221A60B3
:1009CC0037E08A4B5B6813F4803FE7D0874B1B689A
:1009DC0013F4003F03D06368002B00F0BF81236841
:1009EC0013F0020F75D0814B5B6813F00C0F5FD0C6
:1009FC007E4B5B6803F00C03082B54D02369002B4F
:100A0C0000F08A807A4B01221A60FFF781FF0546BD
:100A1C00764B1B6813F0020F75D1FFF779FF401B63
:100A2C000228F5D903209EE1704A136843F4803301
:100A3C001360636843B3FFF76BFF05466B4B1B6892
:100A4C0013F4003FCBD1FFF763FF401B6428F5D9AB
:100A5C00032088E1B3F5A02F09D0644B1A6822F467
:100A6C0080321A601A6822F480221A60E1E703F1DE
:100A7C008043A3F53C331A6842F480221A601A684A
:100A8C0042F480321A60D4E7FFF742FF0546574B19
:100A9C001B6813F4003FA2D0FFF73AFF401B6428F9
:100AAC00F5D903205FE1514B5B6813F4803FA5D16E
:100ABC004E4B1B6813F0020F03D02369012B40F03F
:100ACC004F814A4A136823F0F803616943EAC10372
:100ADC001360236813F0080F33D0A369002B5CD08C
:100AEC00434B0122C3F88024FFF712FF05463F4B0E
:100AFC005B6A13F0020F21D1FFF70AFF401B02289B
:100B0C00F5D903202FE1394A136823F0F803616902
:100B1C0043EAC1031360DCE7354B00221A60FFF790
:100B2C00F7FE0546314B1B6813F0020FD1D0FFF7CF
:100B3C00EFFE401B0228F5D9032014E10120FFF73A
:100B4C0001FF236813F0040F00F09680274BDB693C
:100B5C0013F0805F34D1254BDA6942F08052DA61B0
:100B6C00DB6903F080530193019B0125214B1B682A
:100B7C0013F4807F26D0E368012B3DD0002B53D19A
:100B8C0003F1804303F504331A6A22F001021A625E
:100B9C001A6A22F004021A6233E0154B0022C3F8E1
:100BAC008024FFF7B5FE0546104B5B6A13F0020F6D
:100BBC00C7D0FFF7ADFE401B0228F5D90320D2E0C9
:100BCC000025D3E70B4A136843F480731360FFF7D7
:100BDC009FFE0646074B1B6813F4807FCBD1FFF7B3
:100BEC0097FE801B6428F5D90320BCE0001002405E
:100BFC0000004242007000405F4A136A43F0010358
:100C0C001362E36833B3FFF783FE06465A4B1B6A45
:100C1C0013F0020F2FD1FFF77BFE801B41F28833BC
:100C2C009842F3D903209EE0052B09D0524B1A6A47
:100C3C0022F001021A621A6A22F004021A62E0E738
:100C4C004D4B1A6A42F004021A621A6A42F001020F
:100C5C001A62D6E7FFF75CFE0646474B1B6A13F099
:100C6C00020F08D0FFF754FE801B41F288339842E4
:100C7C00F3D9032077E0E5B9E369002B72D03E4A43
:100C8C00526802F00C02082A56D0022B17D03B4BAC
:100C9C0000221A66FFF73CFE0446374B1B6813F024
:100CAC00007F47D0FFF734FE001B0228F5D9032044
:100CBC0059E0314AD36923F08053D361DCE72F4BE1
:100CCC0000221A66FFF724FE05462B4B1B6813F017
:100CDC00007F06D0FFF71CFE401B0228F5D903202D
:100CEC0041E0236AB3F5803F1AD023494B6823F4C3
:100CFC007413226A606A024313434B601F4B012238
:100D0C001A66FFF705FE04461B4B1B6813F0007FA9
:100D1C000ED1FFF7FDFD001B0228F5D9032022E0C0
:100D2C00154A536823F40033A1680B435360DCE786
:100D3C00002018E0002016E0012B16D00E4B5B684B
:100D4C0003F48031226A914211D103F47013626A68
:100D5C0093420ED1002006E001207047012002E0F2
:100D6C00012000E0002002B070BD0120FBE7012053
:100D7C00F9E70120F7E700BF0010024000004242F3
:100D8C000F4B5B6803F00C02082A01D00D4870472A
:100D9C00C3F383420C49885C13F4803F0BD0084B9F
:100DAC005B68C3F34043094AD35C064A02FB00F07C
:100DBC00B0FBF3F07047064B03FB00F0704700BF2D
:100DCC000010024000127A00101500080C150008E3
:100DDC0000093D00002800F0A08070B50D460446C7
:100DEC00524B1B6803F007038B420BD24F4A13681C
:100DFC0023F007030B431360136803F007038B42C4
:100E0C0040F08D80236813F0020F17D013F0040FFD
:100E1C0004D0474A536843F4E0635360236813F0EB
:100E2C00080F04D0424A536843F460535360404A5D
:100E3C00536823F0F003A1680B435360236813F04D
:100E4C00010F31D06368012B20D0022B25D0384AFA
:100E5C00126812F0020F64D035494A6822F003027E
:100E6C0013434B60FFF754FD0646314B5B6803F0B0
:100E7C000C036268B3EB820F16D0FFF749FD801BA1
:100E8C0041F288339842F0D9032045E0284A126891
:100E9C0012F4003FE0D101203EE0254A126812F026
:100EAC00007FD9D1012037E0204B1B6803F00703EA
:100EBC00AB420AD91D4A136823F007032B43136076
:100ECC00136803F00703AB422DD1236813F0040F12
:100EDC0006D0174A536823F4E063E1680B43536070
:100EEC00236813F0080F07D0114A536823F460539A
:100EFC00216943EAC1035360FFF742FF0C4B5B6867
:100F0C00C3F303130B4AD35CD8400B4B18600B4B49
:100F1C001868FFF7B9FC002070BD01207047012054
:100F2C00FAE70120F8E70120F6E700BF00200240B5
:100F3C0000100240281500080800002004000020C2
:100F4C00014B1868704700BF0800002008B5FFF778
:100F5C00F7FF044B5B68C3F30223034AD35CD8400E
:100F6C0008BD00BF001002402015000808B5FFF7AF
:100F7C00E7FF044B5B68C3F3C223034AD35CD8403E
:100F8C0008BD00BF001002402015000870B582B0EB
:100F9C000024A4469EE07C4DAB4214D00CD8A5F5A1
:100FAC008015AB420FD005F57025AB420BD0A5F5E3
:100FBC008015AB421FD106E0744DAB4203D005F552
:100FCC008035AB4217D18B68A3B1012B0DD0426198
:100FDC00082410E0CC680EE0CC6804340BE0CC683C
:100FEC00083408E0CC680C3405E00261082402E007
:100FFC00002400E00424BEF1FF0F37D806464FEA68
:10100C008C0233680F25954023EA050304FA02F29B
:10101C00134333604B6813F0805F59D05C4B9A6973
:10102C0042F001029A619B6903F001030193019B59
:10103C004FEA9C02951C574B53F825600CF00305A6
:10104C00AD000F23AB4026EA0306534B984214D055
:10105C0003F58063984279D003F58063984277D08A
:10106C0003F58063984206D0042307E0061DACF11B
:10107C0008029200C5E7032300E00023AB40334392
:10108C000232444D45F822304B6813F4801F61D076
:10109C00424A936843EA0E0393604B6813F4001FB3
:1010AC005ED03E4AD36843EA0E03D3604B6813F418
:1010BC00003F5BD0394A536843EA0E0353604B68D8
:1010CC0013F4803F58D0354A136843EA0E0313607B
:1010DC000CF1010C0B6833FA0CF253D0012202FA1A
:1010EC000CF203EA020E32EA0303F1D14B68122B25
:1010FC003FF651AF122B3FF67EAF01A555F823F00A
:10110C00D30F0008E10F0008EB0F0008FD0F0008DB
:10111C000310000803100008031000080310000857
:10112C000310000803100008031000080310000847
:10113C000310000803100008031000080310000837
:10114C0003100008E50F0008F10F0008012395E7D4
:10115C00022393E7114A936823EA0E0393609CE7FA
:10116C000E4AD36823EA0E03D3609FE70B4A5368F9
:10117C0023EA0E035360A2E7084A136823EA0E031E
:10118C001360A5E702B070BD000022100000311002
:10119C000010024000000140000801400004014022
:1011AC000AB101617047090401617047C36801EA23
:1011BC00030221EA030141EA024101617047000088
:1011CC00002808DB0901C9B200F1604000F561405C
:1011DC0080F80013704700F00F000901C9B2014BF1
:1011EC001954704714ED00E000B500F00700C0F191
:1011FC00070CBCF1040F28BF4FF0040C031D062B89
:10120C000FD9C31E4FF0FF3E0EFA0CF021EA00017D
:10121C0099400EFA03FE22EA0E0241EA02005DF842
:10122C0004FB0023EEE70000074AD36823F4E063D5
:10123C001B041B0C000200F4E060034343F0BF638B
:10124C0043F40033D360704700ED00E010B5044662
:10125C00054BD868C0F30220FFF7C6FF01462046B5
:10126C00FFF7AEFF10BD00BF00ED00E00138B0F19C
:10127C00807F0BD24FF0E0235861054AF02182F8B1
:10128C0023100020986107221A61704701207047D3
:10129C0000ED00E0002856D010B50446436A33B97F
:1012AC004368B3F5827F05D00023C36102E00023BD
:1012BC00036143610023A36294F85130002B3CD0AE
:1012CC00022384F851302268136823F04003136022
:1012DC00636803F48273A26802F404421343E26865
:1012EC0002F400621343226902F0020213436269A2
:1012FC0002F001021343A26902F400721343E26983
:10130C0002F038021343226A02F080021343A26AED
:10131C0002F40052216813430B60638B226803F0C4
:10132C00040353602268D36923F40063D361002063
:10133C006065012384F8513010BD84F8503020468C
:10134C00FFF71CF9BCE701207047000010B50446FC
:10135C000268136923F44053C1680B43136183681B
:10136C000269134342691A430168CB6823F4B053F2
:10137C0023F00C031343CB600268536923F44073CE
:10138C0081690B4353610268134B9A4220D0FFF7DB
:10139C00DDFD024602EB820202EB820263689B00D7
:1013AC00B2FBF3F20D48A0FB02314909642303FBA5
:1013BC0011231B013233A0FB03035B0903F0F00282
:1013CC0002EB011203F00F03216813448B6010BD74
:1013DC00FFF7CCFD0246DDE7003801401F85EB51DD
:1013EC0060B310B5044690F8413013B3242384F84D
:1013FC0041302268D36823F40053D3602046FFF7B2
:10140C00A5FF2268136923F4904313612268536982
:10141C0023F02A0353612268D36843F40053D3604A
:10142C0000206064202384F8413084F842306063EB
:10143C0010BD80F84030FFF7DDF8D7E7012070478A
:10144C0070470000FFF7FCFF0B480C490C4A0023C7
:10145C0002E0D458C4500433C4188C42F9D3094A5E
:10146C00094C002301E013600432A242FBD300F0CC
:10147C0017F8FEF7D7FF7047000000200C00002083
:10148C00401500080C000020BC010020FEE70346BC
:10149C000244934200D1704703F8011BF9E70000A6
:1014AC0070B500260C4D0D4B5B1B9C10A64209D150
:1014BC00002600F019F80A4D0A4B5B1B9C10A64243
:1014CC0005D170BD55F8043B98470136EEE755F849
:1014DC00043B98470136F2E7381500083815000828
:1014EC00381500083C150008F8B500BFF8BC08BC5E
:1014FC009E467047F8B500BFF8BC08BC9E467047C6
:10150C000102000002030405060708090A0B0C0D72
:10151C000E0F101000000000010203040000000078
:0C152C000000000001020304060708098B
:041538007501000831
:04153C004D01000855
:0C154000010000001000000000127A0002
:04000005080014518A
:00000001FF
